{
  "_format": "hh-sol-artifact-1",
  "contractName": "Uniswap",
  "sourceName": "contracts/Uniswap.sol",
  "abi": [
    {
      "inputs": [
        {
          "internalType": "address",
          "name": "_tokenA",
          "type": "address"
        },
        {
          "internalType": "address",
          "name": "_tokenB",
          "type": "address"
        }
      ],
      "stateMutability": "nonpayable",
      "type": "constructor"
    },
    {
      "inputs": [
        {
          "internalType": "uint256",
          "name": "amountA",
          "type": "uint256"
        },
        {
          "internalType": "uint256",
          "name": "amountB",
          "type": "uint256"
        }
      ],
      "name": "addLiquidity",
      "outputs": [],
      "stateMutability": "nonpayable",
      "type": "function"
    },
    {
      "inputs": [
        {
          "internalType": "uint256",
          "name": "amountA",
          "type": "uint256"
        },
        {
          "internalType": "uint256",
          "name": "amountB",
          "type": "uint256"
        }
      ],
      "name": "removeLiquidity",
      "outputs": [],
      "stateMutability": "nonpayable",
      "type": "function"
    },
    {
      "inputs": [],
      "name": "reserveA",
      "outputs": [
        {
          "internalType": "uint256",
          "name": "",
          "type": "uint256"
        }
      ],
      "stateMutability": "view",
      "type": "function"
    },
    {
      "inputs": [],
      "name": "reserveB",
      "outputs": [
        {
          "internalType": "uint256",
          "name": "",
          "type": "uint256"
        }
      ],
      "stateMutability": "view",
      "type": "function"
    },
    {
      "inputs": [
        {
          "internalType": "uint256",
          "name": "amountA",
          "type": "uint256"
        }
      ],
      "name": "swapAToB",
      "outputs": [],
      "stateMutability": "nonpayable",
      "type": "function"
    },
    {
      "inputs": [
        {
          "internalType": "uint256",
          "name": "amountB",
          "type": "uint256"
        }
      ],
      "name": "swapBToA",
      "outputs": [],
      "stateMutability": "nonpayable",
      "type": "function"
    },
    {
      "inputs": [],
      "name": "tokenA",
      "outputs": [
        {
          "internalType": "address",
          "name": "",
          "type": "address"
        }
      ],
      "stateMutability": "view",
      "type": "function"
    },
    {
      "inputs": [],
      "name": "tokenB",
      "outputs": [
        {
          "internalType": "address",
          "name": "",
          "type": "address"
        }
      ],
      "stateMutability": "view",
      "type": "function"
    }
  ],
  "bytecode": "0x608060405234801561001057600080fd5b50604051610fe3380380610fe38339818101604052810190610032919061011d565b816000806101000a81548173ffffffffffffffffffffffffffffffffffffffff021916908373ffffffffffffffffffffffffffffffffffffffff16021790555080600160006101000a81548173ffffffffffffffffffffffffffffffffffffffff021916908373ffffffffffffffffffffffffffffffffffffffff160217905550505061015d565b600080fd5b600073ffffffffffffffffffffffffffffffffffffffff82169050919050565b60006100ea826100bf565b9050919050565b6100fa816100df565b811461010557600080fd5b50565b600081519050610117816100f1565b92915050565b60008060408385031215610134576101336100ba565b5b600061014285828601610108565b925050602061015385828601610108565b9150509250929050565b610e778061016c6000396000f3fe608060405234801561001057600080fd5b50600436106100885760003560e01c8063859497881161005b57806385949788146101035780639cd441da1461011f5780639d7de6b31461013b578063dc5fa6c51461015757610088565b80630fc63d101461008d57806319e36f3b146100ab57806338720f72146100c95780635f64b55b146100e5575b600080fd5b610095610175565b6040516100a29190610a6d565b60405180910390f35b6100b3610199565b6040516100c09190610aa1565b60405180910390f35b6100e360048036038101906100de9190610aed565b61019f565b005b6100ed6103b2565b6040516100fa9190610a6d565b60405180910390f35b61011d60048036038101906101189190610aed565b6103d8565b005b61013960048036038101906101349190610b1a565b6105eb565b005b61015560048036038101906101509190610b1a565b6107e1565b005b61015f610a26565b60405161016c9190610aa1565b60405180910390f35b60008054906101000a900473ffffffffffffffffffffffffffffffffffffffff1681565b60035481565b6000600254600354836101b29190610b89565b6101bc9190610bfa565b905060008054906101000a900473ffffffffffffffffffffffffffffffffffffffff1673ffffffffffffffffffffffffffffffffffffffff166323b872dd3330856040518463ffffffff1660e01b815260040161021b93929190610c2b565b6020604051808303816000875af115801561023a573d6000803e3d6000fd5b505050506040513d601f19601f8201168201806040525081019061025e9190610c9a565b61029d576040517f08c379a000000000000000000000000000000000000000000000000000000000815260040161029490610d24565b60405180910390fd5b600160009054906101000a900473ffffffffffffffffffffffffffffffffffffffff1673ffffffffffffffffffffffffffffffffffffffff1663a9059cbb33836040518363ffffffff1660e01b81526004016102fa929190610d44565b6020604051808303816000875af1158015610319573d6000803e3d6000fd5b505050506040513d601f19601f8201168201806040525081019061033d9190610c9a565b61037c576040517f08c379a000000000000000000000000000000000000000000000000000000000815260040161037390610d24565b60405180910390fd5b816002600082825461038e9190610d6d565b9250508190555080600360008282546103a79190610da1565b925050819055505050565b600160009054906101000a900473ffffffffffffffffffffffffffffffffffffffff1681565b6000600354600254836103eb9190610b89565b6103f59190610bfa565b9050600160009054906101000a900473ffffffffffffffffffffffffffffffffffffffff1673ffffffffffffffffffffffffffffffffffffffff166323b872dd3330856040518463ffffffff1660e01b815260040161045693929190610c2b565b6020604051808303816000875af1158015610475573d6000803e3d6000fd5b505050506040513d601f19601f820116820180604052508101906104999190610c9a565b6104d8576040517f08c379a00000000000000000000000000000000000000000000000000000000081526004016104cf90610d24565b60405180910390fd5b60008054906101000a900473ffffffffffffffffffffffffffffffffffffffff1673ffffffffffffffffffffffffffffffffffffffff1663a9059cbb33836040518363ffffffff1660e01b8152600401610533929190610d44565b6020604051808303816000875af1158015610552573d6000803e3d6000fd5b505050506040513d601f19601f820116820180604052508101906105769190610c9a565b6105b5576040517f08c379a00000000000000000000000000000000000000000000000000000000081526004016105ac90610d24565b60405180910390fd5b81600360008282546105c79190610d6d565b9250508190555080600260008282546105e09190610da1565b925050819055505050565b60008054906101000a900473ffffffffffffffffffffffffffffffffffffffff1673ffffffffffffffffffffffffffffffffffffffff166323b872dd3330856040518463ffffffff1660e01b815260040161064893929190610c2b565b6020604051808303816000875af1158015610667573d6000803e3d6000fd5b505050506040513d601f19601f8201168201806040525081019061068b9190610c9a565b6106ca576040517f08c379a00000000000000000000000000000000000000000000000000000000081526004016106c190610d24565b60405180910390fd5b600160009054906101000a900473ffffffffffffffffffffffffffffffffffffffff1673ffffffffffffffffffffffffffffffffffffffff166323b872dd3330846040518463ffffffff1660e01b815260040161072993929190610c2b565b6020604051808303816000875af1158015610748573d6000803e3d6000fd5b505050506040513d601f19601f8201168201806040525081019061076c9190610c9a565b6107ab576040517f08c379a00000000000000000000000000000000000000000000000000000000081526004016107a290610d24565b60405180910390fd5b81600260008282546107bd9190610d6d565b9250508190555080600360008282546107d69190610d6d565b925050819055505050565b81600254101580156107f557508060035410155b610834576040517f08c379a000000000000000000000000000000000000000000000000000000000815260040161082b90610e21565b60405180910390fd5b81600260008282546108469190610da1565b92505081905550806003600082825461085f9190610da1565b9250508190555060008054906101000a900473ffffffffffffffffffffffffffffffffffffffff1673ffffffffffffffffffffffffffffffffffffffff1663a9059cbb33846040518363ffffffff1660e01b81526004016108c1929190610d44565b6020604051808303816000875af11580156108e0573d6000803e3d6000fd5b505050506040513d601f19601f820116820180604052508101906109049190610c9a565b610943576040517f08c379a000000000000000000000000000000000000000000000000000000000815260040161093a90610d24565b60405180910390fd5b600160009054906101000a900473ffffffffffffffffffffffffffffffffffffffff1673ffffffffffffffffffffffffffffffffffffffff1663a9059cbb33836040518363ffffffff1660e01b81526004016109a0929190610d44565b6020604051808303816000875af11580156109bf573d6000803e3d6000fd5b505050506040513d601f19601f820116820180604052508101906109e39190610c9a565b610a22576040517f08c379a0000000000000000000000000000000000000000000000000000000008152600401610a1990610d24565b60405180910390fd5b5050565b60025481565b600073ffffffffffffffffffffffffffffffffffffffff82169050919050565b6000610a5782610a2c565b9050919050565b610a6781610a4c565b82525050565b6000602082019050610a826000830184610a5e565b92915050565b6000819050919050565b610a9b81610a88565b82525050565b6000602082019050610ab66000830184610a92565b92915050565b600080fd5b610aca81610a88565b8114610ad557600080fd5b50565b600081359050610ae781610ac1565b92915050565b600060208284031215610b0357610b02610abc565b5b6000610b1184828501610ad8565b91505092915050565b60008060408385031215610b3157610b30610abc565b5b6000610b3f85828601610ad8565b9250506020610b5085828601610ad8565b9150509250929050565b7f4e487b7100000000000000000000000000000000000000000000000000000000600052601160045260246000fd5b6000610b9482610a88565b9150610b9f83610a88565b9250828202610bad81610a88565b91508282048414831517610bc457610bc3610b5a565b5b5092915050565b7f4e487b7100000000000000000000000000000000000000000000000000000000600052601260045260246000fd5b6000610c0582610a88565b9150610c1083610a88565b925082610c2057610c1f610bcb565b5b828204905092915050565b6000606082019050610c406000830186610a5e565b610c4d6020830185610a5e565b610c5a6040830184610a92565b949350505050565b60008115159050919050565b610c7781610c62565b8114610c8257600080fd5b50565b600081519050610c9481610c6e565b92915050565b600060208284031215610cb057610caf610abc565b5b6000610cbe84828501610c85565b91505092915050565b600082825260208201905092915050565b7f5472616e73666572206661696c65640000000000000000000000000000000000600082015250565b6000610d0e600f83610cc7565b9150610d1982610cd8565b602082019050919050565b60006020820190508181036000830152610d3d81610d01565b9050919050565b6000604082019050610d596000830185610a5e565b610d666020830184610a92565b9392505050565b6000610d7882610a88565b9150610d8383610a88565b9250828201905080821115610d9b57610d9a610b5a565b5b92915050565b6000610dac82610a88565b9150610db783610a88565b9250828203905081811115610dcf57610dce610b5a565b5b92915050565b7f496e73756666696369656e742072657365727665730000000000000000000000600082015250565b6000610e0b601583610cc7565b9150610e1682610dd5565b602082019050919050565b60006020820190508181036000830152610e3a81610dfe565b905091905056fea264697066735822122005c21a5c75f671b6a5505e11ce6a7e84549867a99825b0ea3e16efa3318a549664736f6c634300081c0033",
  "linkReferences": {},
  "deployedLinkReferences": {}
}